{
  "contractName": "Crowdsale",
  "abi": [
    {
      "constant": true,
      "inputs": [
        {
          "name": "",
          "type": "uint256"
        }
      ],
      "name": "tiers",
      "outputs": [
        {
          "name": "discount",
          "type": "uint256"
        },
        {
          "name": "from",
          "type": "uint256"
        },
        {
          "name": "to",
          "type": "uint256"
        },
        {
          "name": "duration",
          "type": "uint256"
        }
      ],
      "payable": false,
      "stateMutability": "view",
      "type": "function"
    },
    {
      "constant": false,
      "inputs": [
        {
          "name": "beneficiary",
          "type": "address"
        },
        {
          "name": "_purchaseTime",
          "type": "uint256"
        }
      ],
      "name": "buyTokens",
      "outputs": [],
      "payable": true,
      "stateMutability": "payable",
      "type": "function"
    },
    {
      "constant": true,
      "inputs": [],
      "name": "MAX_TIERS",
      "outputs": [
        {
          "name": "",
          "type": "uint8"
        }
      ],
      "payable": false,
      "stateMutability": "view",
      "type": "function"
    },
    {
      "constant": true,
      "inputs": [],
      "name": "rate",
      "outputs": [
        {
          "name": "",
          "type": "uint256"
        }
      ],
      "payable": false,
      "stateMutability": "view",
      "type": "function"
    },
    {
      "constant": true,
      "inputs": [],
      "name": "endTime",
      "outputs": [
        {
          "name": "",
          "type": "uint256"
        }
      ],
      "payable": false,
      "stateMutability": "view",
      "type": "function"
    },
    {
      "constant": true,
      "inputs": [],
      "name": "weiRaised",
      "outputs": [
        {
          "name": "",
          "type": "uint256"
        }
      ],
      "payable": false,
      "stateMutability": "view",
      "type": "function"
    },
    {
      "constant": true,
      "inputs": [],
      "name": "wallet",
      "outputs": [
        {
          "name": "",
          "type": "address"
        }
      ],
      "payable": false,
      "stateMutability": "view",
      "type": "function"
    },
    {
      "constant": true,
      "inputs": [],
      "name": "startTime",
      "outputs": [
        {
          "name": "",
          "type": "uint256"
        }
      ],
      "payable": false,
      "stateMutability": "view",
      "type": "function"
    },
    {
      "constant": true,
      "inputs": [],
      "name": "owner",
      "outputs": [
        {
          "name": "",
          "type": "address"
        }
      ],
      "payable": false,
      "stateMutability": "view",
      "type": "function"
    },
    {
      "constant": false,
      "inputs": [
        {
          "name": "discount",
          "type": "uint256[]"
        },
        {
          "name": "from",
          "type": "uint256[]"
        },
        {
          "name": "to",
          "type": "uint256[]"
        },
        {
          "name": "duration",
          "type": "uint256[]"
        }
      ],
      "name": "initTiers",
      "outputs": [],
      "payable": false,
      "stateMutability": "nonpayable",
      "type": "function"
    },
    {
      "constant": true,
      "inputs": [],
      "name": "tiersInitialized",
      "outputs": [
        {
          "name": "",
          "type": "bool"
        }
      ],
      "payable": false,
      "stateMutability": "view",
      "type": "function"
    },
    {
      "constant": true,
      "inputs": [],
      "name": "hasEnded",
      "outputs": [
        {
          "name": "",
          "type": "bool"
        }
      ],
      "payable": false,
      "stateMutability": "view",
      "type": "function"
    },
    {
      "constant": false,
      "inputs": [
        {
          "name": "newOwner",
          "type": "address"
        }
      ],
      "name": "transferOwnership",
      "outputs": [],
      "payable": false,
      "stateMutability": "nonpayable",
      "type": "function"
    },
    {
      "constant": true,
      "inputs": [],
      "name": "token",
      "outputs": [
        {
          "name": "",
          "type": "address"
        }
      ],
      "payable": false,
      "stateMutability": "view",
      "type": "function"
    },
    {
      "inputs": [
        {
          "name": "_startTime",
          "type": "uint256"
        },
        {
          "name": "_endTime",
          "type": "uint256"
        },
        {
          "name": "_rate",
          "type": "uint256"
        },
        {
          "name": "_wallet",
          "type": "address"
        },
        {
          "name": "_token",
          "type": "address"
        }
      ],
      "payable": false,
      "stateMutability": "nonpayable",
      "type": "constructor"
    },
    {
      "payable": true,
      "stateMutability": "payable",
      "type": "fallback"
    },
    {
      "anonymous": false,
      "inputs": [
        {
          "indexed": true,
          "name": "purchaser",
          "type": "address"
        },
        {
          "indexed": true,
          "name": "beneficiary",
          "type": "address"
        },
        {
          "indexed": false,
          "name": "value",
          "type": "uint256"
        },
        {
          "indexed": false,
          "name": "amount",
          "type": "uint256"
        }
      ],
      "name": "TokenPurchase",
      "type": "event"
    },
    {
      "anonymous": false,
      "inputs": [
        {
          "indexed": true,
          "name": "previousOwner",
          "type": "address"
        },
        {
          "indexed": true,
          "name": "newOwner",
          "type": "address"
        }
      ],
      "name": "OwnershipTransferred",
      "type": "event"
    }
  ],
  "bytecode": "0x60606040526000600760006101000a81548160ff0219169083151502179055506002600760016101000a81548160ff021916908360ff160217905550341561004657600080fd5b60405160a08061102483398101604052808051906020019091908051906020019091908051906020019091908051906020019091908051906020019091905050336000806101000a81548173ffffffffffffffffffffffffffffffffffffffff021916908373ffffffffffffffffffffffffffffffffffffffff1602179055504285101515156100d557600080fd5b8484101515156100e457600080fd5b6000831115156100f357600080fd5b600073ffffffffffffffffffffffffffffffffffffffff168273ffffffffffffffffffffffffffffffffffffffff161415151561012f57600080fd5b600073ffffffffffffffffffffffffffffffffffffffff168173ffffffffffffffffffffffffffffffffffffffff161415151561016b57600080fd5b84600281905550836003819055508260058190555081600460006101000a81548173ffffffffffffffffffffffffffffffffffffffff021916908373ffffffffffffffffffffffffffffffffffffffff16021790555080600160006101000a81548173ffffffffffffffffffffffffffffffffffffffff021916908373ffffffffffffffffffffffffffffffffffffffff1602179055505050505050610e0e806102166000396000f3006060604052600436106100d0576000357c0100000000000000000000000000000000000000000000000000000000900463ffffffff168063039af9eb146100dc5780630752881a1461012857806307c3d4af1461015f5780632c4e722e1461018e5780633197cbb6146101b75780634042b66f146101e0578063521eb2731461020957806378e979251461025e5780638da5cb5b146102875780639bde8770146102dc578063dcf8045e146103f6578063ecb70fb714610423578063f2fde38b14610450578063fc0c546a14610489575b6100da33426104de565b005b34156100e757600080fd5b6100fd60048080359060200190919050506106c2565b6040518085815260200184815260200183815260200182815260200194505050505060405180910390f35b61015d600480803573ffffffffffffffffffffffffffffffffffffffff169060200190919080359060200190919050506104de565b005b341561016a57600080fd5b6101726106f7565b604051808260ff1660ff16815260200191505060405180910390f35b341561019957600080fd5b6101a161070a565b6040518082815260200191505060405180910390f35b34156101c257600080fd5b6101ca610710565b6040518082815260200191505060405180910390f35b34156101eb57600080fd5b6101f3610716565b6040518082815260200191505060405180910390f35b341561021457600080fd5b61021c61071c565b604051808273ffffffffffffffffffffffffffffffffffffffff1673ffffffffffffffffffffffffffffffffffffffff16815260200191505060405180910390f35b341561026957600080fd5b610271610742565b6040518082815260200191505060405180910390f35b341561029257600080fd5b61029a610748565b604051808273ffffffffffffffffffffffffffffffffffffffff1673ffffffffffffffffffffffffffffffffffffffff16815260200191505060405180910390f35b34156102e757600080fd5b6103f460048080359060200190820180359060200190808060200260200160405190810160405280939291908181526020018383602002808284378201915050505050509190803590602001908201803590602001908080602002602001604051908101604052809392919081815260200183836020028082843782019150505050505091908035906020019082018035906020019080806020026020016040519081016040528093929190818152602001838360200280828437820191505050505050919080359060200190820180359060200190808060200260200160405190810160405280939291908181526020018383602002808284378201915050505050509190505061076d565b005b341561040157600080fd5b610409610a70565b604051808215151515815260200191505060405180910390f35b341561042e57600080fd5b610436610a83565b604051808215151515815260200191505060405180910390f35b341561045b57600080fd5b610487600480803573ffffffffffffffffffffffffffffffffffffffff16906020019091905050610a8f565b005b341561049457600080fd5b61049c610be4565b604051808273ffffffffffffffffffffffffffffffffffffffff1673ffffffffffffffffffffffffffffffffffffffff16815260200191505060405180910390f35b60008060008073ffffffffffffffffffffffffffffffffffffffff168573ffffffffffffffffffffffffffffffffffffffff161415151561051e57600080fd5b610526610c0a565b151561053157600080fd5b34925083915061054082610c3d565b905061055783600654610d0a90919063ffffffff16565b600681905550600160009054906101000a900473ffffffffffffffffffffffffffffffffffffffff1673ffffffffffffffffffffffffffffffffffffffff1663a9059cbb86836000604051602001526040518363ffffffff167c0100000000000000000000000000000000000000000000000000000000028152600401808373ffffffffffffffffffffffffffffffffffffffff1673ffffffffffffffffffffffffffffffffffffffff16815260200182815260200192505050602060405180830381600087803b151561062a57600080fd5b6102c65a03f1151561063b57600080fd5b50505060405180519050508473ffffffffffffffffffffffffffffffffffffffff163373ffffffffffffffffffffffffffffffffffffffff167f623b3804fa71d67900d064613da8f94b9617215ee90799290593e1745087ad188584604051808381526020018281526020019250505060405180910390a36106bb610d28565b5050505050565b6008816002811015156106d157fe5b600402016000915090508060000154908060010154908060020154908060030154905084565b600760019054906101000a900460ff1681565b60055481565b60035481565b60065481565b600460009054906101000a900473ffffffffffffffffffffffffffffffffffffffff1681565b60025481565b6000809054906101000a900473ffffffffffffffffffffffffffffffffffffffff1681565b60008060009054906101000a900473ffffffffffffffffffffffffffffffffffffffff1673ffffffffffffffffffffffffffffffffffffffff163373ffffffffffffffffffffffffffffffffffffffff161415156107ca57600080fd5b600760019054906101000a900460ff1660ff1685511480156107fe5750600760019054906101000a900460ff1660ff168451145b801561081c5750600760019054906101000a900460ff1660ff168351145b801561083a5750600760019054906101000a900460ff1660ff168251145b151561084557600080fd5b600090505b600760019054906101000a900460ff1660ff168160ff161015610a4e576000858260ff1681518110151561087a57fe5b9060200190602002015111151561089057600080fd5b838160ff168151811015156108a157fe5b90602001906020020151838260ff168151811015156108bc57fe5b906020019060200201511115156108d257600080fd5b6000828260ff168151811015156108e557fe5b906020019060200201511115156108fb57600080fd5b6000848260ff1681518110151561090e57fe5b9060200190602002015111151561092457600080fd5b60008160ff16111561097657826001820360ff1681518110151561094457fe5b90602001906020020151848260ff1681518110151561095f57fe5b9060200190602002015111151561097557600080fd5b5b608060405190810160405280868360ff1681518110151561099357fe5b906020019060200201518152602001858360ff168151811015156109b357fe5b906020019060200201518152602001848360ff168151811015156109d357fe5b906020019060200201518152602001838360ff168151811015156109f357fe5b9060200190602002015181525060088260ff16600281101515610a1257fe5b6004020160008201518160000155602082015181600101556040820151816002015560608201518160030155905050808060010191505061084a565b6001600760006101000a81548160ff0219169083151502179055505050505050565b600760009054906101000a900460ff1681565b60006003544211905090565b6000809054906101000a900473ffffffffffffffffffffffffffffffffffffffff1673ffffffffffffffffffffffffffffffffffffffff163373ffffffffffffffffffffffffffffffffffffffff16141515610aea57600080fd5b600073ffffffffffffffffffffffffffffffffffffffff168173ffffffffffffffffffffffffffffffffffffffff1614151515610b2657600080fd5b8073ffffffffffffffffffffffffffffffffffffffff166000809054906101000a900473ffffffffffffffffffffffffffffffffffffffff1673ffffffffffffffffffffffffffffffffffffffff167f8be0079c531659141344cd1fd0a4f28419497f9722a3daafe3b4186f6b6457e060405160405180910390a3806000806101000a81548173ffffffffffffffffffffffffffffffffffffffff021916908373ffffffffffffffffffffffffffffffffffffffff16021790555050565b600160009054906101000a900473ffffffffffffffffffffffffffffffffffffffff1681565b60008060006002544210158015610c2357506003544211155b915060003414159050818015610c365750805b9250505090565b60008060008060086001600281101515610c5357fe5b6004020160020154851015610c6b5760009350610d02565b60009250600091505b60028260ff161015610cfe5760088260ff16600281101515610c9257fe5b600402019050806003015485108015610caf575080600101548510155b8015610cbf575080600201548511155b15610cf157610cee6064610ce0836000015486610d8c90919063ffffffff16565b610dc790919063ffffffff16565b92505b8180600101925050610c74565b8293505b505050919050565b6000808284019050838110151515610d1e57fe5b8091505092915050565b600460009054906101000a900473ffffffffffffffffffffffffffffffffffffffff1673ffffffffffffffffffffffffffffffffffffffff166108fc349081150290604051600060405180830381858888f193505050501515610d8a57600080fd5b565b6000806000841415610da15760009150610dc0565b8284029050828482811515610db257fe5b04141515610dbc57fe5b8091505b5092915050565b6000808284811515610dd557fe5b04905080915050929150505600a165627a7a7230582077738aaebcfdd3850bc5319466e92a6b973f3ebfaf306cdb9fe428fd026800b10029",
  "source": "pragma solidity ^0.4.18;\n\n\nimport \"./SimpleToken.sol\";\n//import \"./Ownable.sol\";\nimport \"zeppelin-solidity/contracts/ownership/Ownable.sol\";\n\n\n\n/**\n * @title Crowdsale\n * @dev Crowdsale is a base contract for managing a token crowdsale.\n * Crowdsales have a start and end timestamps, where investors can make\n * token purchases and the crowdsale will assign them tokens based\n * on a token per ETH rate. Funds collected are forwarded to a wallet\n * as they arrive. The contract requires a MintableToken that will be\n * minted as contributions arrive, note that the crowdsale contract\n * must be owner of the token in order to be able to mint it.\n */\ncontract Crowdsale is Ownable {\n  using SafeMath for uint256;\n\n  // The token being sold\n  SimpleToken public token;\n\n  // start and end timestamps where investments are allowed (both inclusive)\n  uint256 public startTime;\n  uint256 public endTime;\n\n  // address where funds are collected\n  address public wallet;\n\n  // how many token units a buyer gets per wei\n  uint256 public rate;\n\n  // amount of raised money in wei\n  uint256 public weiRaised;\n\n  bool public tiersInitialized = false;\n\n\n  uint8 public MAX_TIERS = 2;\n\n  struct Tier {\n    uint256 discount;\n    uint256 from; // from which time \n    uint256 to;  // to which time \n    uint256 duration; // days of discount period\n  }\n\n   Tier[2] public tiers;\n\n\n  /**\n   * event for token purchase logging\n   * @param purchaser who paid for the tokens\n   * @param beneficiary who got the tokens\n   * @param value weis paid for purchase\n   * @param amount amount of tokens purchased\n   */\n  event TokenPurchase(address indexed purchaser, address indexed beneficiary, uint256 value, uint256 amount);\n\n\n  function Crowdsale(uint256 _startTime, uint256 _endTime, uint256 _rate, address _wallet, address _token) public {\n    require(_startTime >= now);\n    require(_endTime >= _startTime);\n    require(_rate > 0);\n    require(_wallet != address(0));\n    require(_token != address(0));\n\n    startTime = _startTime;\n    endTime = _endTime;\n    rate = _rate;\n    wallet = _wallet;\n    token = SimpleToken(_token);\n  }\n\n  // fallback function can be used to buy tokens\n  function () external payable {\n    buyTokens(msg.sender, now);\n  }\n\n  // low level token purchase function\n  function buyTokens(address beneficiary, uint256 _purchaseTime) public payable {\n    require(beneficiary != address(0));\n    require(validPurchase());\n\n    uint256 weiAmount = msg.value;\n\n    uint256 purchaseTime = _purchaseTime;\n\n    // calculate token amount to be created\n    uint256 tokens = getTokenAmount(purchaseTime);\n\n    // update state\n    weiRaised = weiRaised.add(weiAmount);\n\n    token.transfer(beneficiary, tokens);\n    TokenPurchase(msg.sender, beneficiary, weiAmount, tokens);\n\n    forwardFunds();\n  }\n\n  // @return true if crowdsale event has ended\n  function hasEnded() public view returns (bool) {\n    return now > endTime;\n  }\n\n  // Override this method to have a way to add business logic to your crowdsale when buying\n  function getTokenAmount(uint256 _purchaseTime) internal view returns(uint256) {\n    \n    if(_purchaseTime < tiers[1].to) {\n      return 0;\n    }\n    uint256 tokens = 0;\n\n    for(uint8 i = 0; i < tiers.length; i++) {\n      Tier _tier = tiers[i];\n      if(_purchaseTime < _tier.duration && _purchaseTime >= _tier.from && _purchaseTime <= _tier.to ) {\n        tokens = tokens.mul(_tier.discount).div(100);\n      }\n    }\n\n    return tokens;\n  }\n\n  // send ether to the fund collection wallet\n  // override to create custom fund forwarding mechanisms\n  function forwardFunds() internal {\n    wallet.transfer(msg.value);\n  }\n\n  // @return true if the transaction can buy tokens\n  function validPurchase() internal view returns (bool) {\n    bool withinPeriod = now >= startTime && now <= endTime;\n    bool nonZeroPurchase = msg.value != 0;\n    return withinPeriod && nonZeroPurchase;\n  }\n\n    // @initialization of tiers\n    function initTiers(uint256[] discount, uint256[] from, uint256[] to, uint256[] duration) public onlyOwner {\n    require(discount.length == MAX_TIERS && from.length == MAX_TIERS && to.length == MAX_TIERS && duration.length == MAX_TIERS);\n\n    for(uint8 i=0;i<MAX_TIERS; i++) {\n      require(discount[i] > 0);\n      require(to[i] > from[i]);\n      require(duration[i] > 0);\n      require(from[i] > 0);\n      if(i>0) {\n        require(from[i] > to[i-1]);\n      }\n\n      tiers[i] = Tier({\n        discount: discount[i],\n        from: from[i],\n        to: to[i],\n        duration: duration[i]\n      });\n\n\n    }\n\n    tiersInitialized = true;\n  }\n\n\n\n} //contract ends",
  "sourcePath": "/Users/Kathirgugan/Desktop/myCoin/contracts/Crowdsale.sol",
  "compiler": {
    "name": "solc",
    "version": "0.4.18+commit.9cf6e910.Emscripten.clang"
  },
  "schemaVersion": "1.0.1",
  "updatedAt": "2018-02-13T01:14:53.969Z"
}